:10005F0049204C4F5645204D435521007777772E39
:0B006F007A73747564792E636F6D0066
:0D009200C2A2120044D2A0120046C2A02259
:0D009F00D2A2120044D2A0120046C2A0223C
:10007A00C2A1C2A07F381200927F0F1200927F069F
:08008A001200927F01020092B6
:1000030012007A7F80120092E4F508E50890005F01
:1000130093FF12009F1200460508E508C3940B40A6
:10002300EA7FC0120092E4F508E50890006B93FFA5
:1000330012009F1200460508E508C3940E40EA80AB
:01004300FEBE
:060044008FA07F147E0076
:10004A007D6ED3EF9400EE94004009DDFEEF1F7041
:04005A00F11E80EE25
:01005E00227F
:030000000200AC4F
:0C00AC00787FE4F6D8FD7581080200039F
:00000001FF
