:10016C00313139323532323934350048656C6C6F87
:08017C0020576F726C64320021
:1001120078087C007D007BFF7A0179777E007F0D75
:100122001200D31201847B007A007908E4FD7F0279
:100132001201447BFF7A01796C7D017F0112014437
:0201420080FE3D
:100198007580FFC2A2D2A1D2A0AF80C2A0EF20E793
:0101A800F660
:0101A9002233
:1001BC00AE07120198C2A2C2A18E80D2A0C2A02208
:1001CC00AE07120198D2A2C2A18E80D2A0C2A022E8
:1001AA00ED7004AC078004EF2440FCEC4480FF02AD
:0201BA0001BC86
:100144008B158A1689171201AAAB15AA16A91712BC
:1001540000F960130517E5177002051614F912006B
:08016400F9FF1201CC80E22238
:100184007F381201BC7F0C1201BC7F061201BC7FB8
:04019400010201BCA7
:030000000201DC1E
:0C01DC00787FE4F6D8FD7581170201124F
:10000300E709F608DFFA8046E709F208DFFA803EDF
:1000130088828C83E709F0A3DFFA8032E309F608CC
:10002300DFFA8078E309F208DFFA807088828C8334
:10003300E309F0A3DFFA806489828A83E0A3F608E8
:10004300DFFA805889828A83E0A3F208DFFA804CC2
:1000530080D280FA80C680D4806980F28033801099
:1000630080A680EA809A80A880DA80E280CA803302
:1000730089828A83ECFAE493A3C8C582C8CCC5837A
:10008300CCF0A3C8C582C8CCC583CCDFE9DEE7804A
:100093000D89828A83E493A3F608DFF9ECFAA9F0C9
:1000A300EDFB2289828A83ECFAE0A3C8C582C8CC1F
:1000B300C583CCF0A3C8C582C8CCC583CCDFEADE38
:1000C300E880DB89828A83E493A3F208DFF980CC9A
:1000D30088F0EF60010E4E60C388F0ED2402B40493
:1000E3000050B9F582EB2402B4040050AF2323453A
:0600F3008223900053730C
:1000F900BB010689828A83E0225002E722BBFE0205
:09010900E32289828A83E4932237
:00000001FF
